:100000000C94CB000C94F3000C94F3000C94F300CC
:100010000C94F3000C94F3000C94F3000C94F30094
:100020000C94F3000C94F3000C941F060C948E06B1
:100030000C94F3000C94F3000C94F3000C94F30074
:100040000C94F3000C94F3000C94F3000C94F30064
:100050000C94F3000C94F3000C94F3000C94D5056D
:100060000C94F3000C94F3000C94F3000C94F30044
:100070000C94F3000C94F3000C94F3000C94F30034
:100080000C94F3000C94F3000C94F3000C94F30024
:100090000C94C0080C94F3000C94F3000C94F3003F
:1000A0000C94F3000C94F3000C94F3000706050481
:1000B0000100080A0B0C0D09080B000202020100E6
:1000C00009040000010202000005240010010524BB
:1000D000010101042402060524060001070581032D
:1000E00010004009040100020A0000000705020296
:1000F00040000007058302400000040309041201C8
:100100000002EF020140412341800001010203018E
:1001100041726475696E6F204C4C43004172647586
:10012000696E6F2059756E000000000025002800E0
:100130002B002E0031000404040404030405020211
:100140000202040302020202060606060606040470
:100150000202020404040802011040804010204002
:1001600080408008020401804020100201108010AD
:10017000204040200000000200090F00000304019D
:10018000000C000000000000000000000000000063
:1001900000000000DF0911241FBECFEFDAE0DEBF50
:1001A000CDBF22E0A2E7B1E001C01D92A13BB207A2
:1001B000E1F711E0A0E0B1E0EEE3F1E202C005906A
:1001C0000D92A237B107D9F710E0CBECD0E004C014
:1001D0002197FE010E94A50ECA3CD107C9F70E94D3
:1001E0000F0A0C949D100C940000282F30E0F901A8
:1001F000EC58FE4F9491F901EB5AFE4F84912A5C22
:100200003E4FF9012491222309F42DC09923E9F0EE
:1002100091509F30D0F4E92FF0E0EF5EFE4F0C9448
:10022000A50E3C01400120013401380125012501C2
:100230002501430149014D015101570125015B0190
:10024000909180009F7790938000E22FF0E0EE0F76
:10025000FF1FE85DFE4FA591B4919FB7F894EC9114
:100260008E2B8C939FBF0895909180009F7DEBCF44
:1002700090918000977FE7CF94B59F7794BDE5CFAD
:1002800094B59F7DFBCF909190009F7790939000C5
:10029000DCCF909190009F7DF9CF90919000977F57
:1002A000F5CF9091C0009F779093C000CECF9091F2
:1002B000C0009F7DF9CF9091C200977F9093C200BC
:1002C000C4CFFC0180914402882311F13FB7F89418
:1002D00082E08093E9002091F200822F90E01816CE
:1002E000190614F481E090E0882339F0289844E658
:1002F000409343024091F1004083222339F0209142
:10030000F200211103C02BE62093E8003FBF0895BF
:100310008FEF9FEF08952FB7F89483E08093E90063
:100320009091E800892F807295FF04C09091F200AF
:1003300080E4891B2FBF089580913B0281110DC07D
:1003400082E08093370284E08093380210923A0270
:100350001092390281E080933B0287E392E0089596
:100360003FB7F8948091330290913402A091350206
:10037000B091360226B5A89B05C02F3F19F0019613
:10038000A11DB11D3FBFBA2FA92F982F8827BC01EF
:10039000CD01620F711D811D911D42E0660F771F17
:1003A000881F991F4A95D1F708958F929F92AF9217
:1003B000BF92CF92DF92EF92FF924B015C010E94BD
:1003C000B0016B017C010E94B0016C197D098E099E
:1003D0009F09683E734081059105A8F321E0821AC8
:1003E0009108A108B10888EEC80E83E0D81EE11C70
:1003F000F11C81149104A104B10429F7FF90EF903E
:10040000DF90CF90BF90AF909F908F9008954091D4
:10041000280250912902209126023091270242178A
:100420005307B4F49091E8009570E1F39091E800DF
:1004300092FD19C08093F1008091280290912902C9
:1004400001968F739927892B19F48EEF8093E8001A
:10045000809128029091290201969093290280931D
:10046000280281E0089580E00895EF92FF920F93B3
:100470001F93CF93DF93F82E192FE62E042F81E0E0
:10048000860F880F0E94070283E00E940702CF2D8B
:10049000D12FEC0EFD2EF11CCE15DF05B9F007FFB4
:1004A00013C0FE0184910E940702182F80E00E9471
:1004B0000702812321968111EFCFDF91CF911F9108
:1004C0000F91FF90EF9008958881EDCF81E0F5CFF7
:1004D000DF92EF92FF920F931F93CF93DF93D82E6B
:1004E0008A01EB017B01E40EF51ECE15DF0559F004
:1004F000D7FE12C0FE0184910E940702219681114D
:10050000F4CF0FEF1FEFC801DF91CF911F910F9133
:10051000FF90EF90DF9008958881EECF0F931F93A7
:10052000CF93DF931F92CDB7DEB782E0898342E499
:1005300050E068EB70E080E80E9468020E949C0135
:10054000DC0112960D911C910115110589F0D8015D
:10055000ED91FC910280F381E02DBE016F5F7F4F32
:10056000C801099597FD04C0F80100851185ECCFFD
:1005700089810F90DF91CF911F910F910895615064
:1005800030F02091F100FC0120830196F8CF2898EB
:1005900084E6809343020895AF92BF92CF92DF9298
:1005A000EF92FF920F931F93CF93DF936C017B0128
:1005B0008B01040F151FEB015E01AE18BF08C017B9
:1005C000D10759F06991D601ED91FC910190F0812C
:1005D000E02DC6010995892B79F7C501DF91CF91EF
:1005E0001F910F91FF90EF90DF90CF90BF90AF9051
:1005F0000895089508958F929F92AF92BF92CF92DF
:10060000DF92EF92FF920F931F93CF93DF936C01D2
:100610007B018A0180910B01882309F45CC08091E1
:100620004402882309F457C080912C0280FF05C042
:100630008091E00082608093E000E801B12C8AEFB5
:10064000A82E93E0892E2AE3922E209711F4BB2046
:10065000D9F10E948B0181110AC0AA94AA20D9F174
:1006600061E070E080E090E00E94D501EECF8C1751
:100670001D0611F00CF08C2F9FB7F8948092E900C2
:100680002091E80025FD02C09FBFDFCF282F30E07A
:10069000C21BD30BF701815020F041914093F10030
:1006A000FACFE20EF31EBB2021F09092E800B12CAD
:1006B000EBCF8091E80085FDE7CF9092E800BB2466
:1006C000B394209709F3F3CF5D9884E680932D02CD
:1006D000101611063CF081E090E0F60193838283CE
:1006E00010E000E0C801DF91CF911F910F91FF90C2
:1006F000EF90DF90CF90BF90AF909F908F90089534
:10070000CF93DF931F92CDB7DEB76983DC01ED9104
:10071000FC910280F381E02D41E050E0BE016F5F6B
:100720007F4F09950F90DF91CF91089583E08093DB
:10073000E9008091F200882319F08AE38093E800B1
:1007400008950E948B0190E00895CF93DF931F924C
:10075000CDB7DEB7FC018485958597FD08C02FEFE6
:100760003FEF358724870F90DF91CF910895CE0119
:1007700001960E946101019719F4898190E0F3CFFD
:100780008FEF9FEFF0CF0F931F93CF93DF931F92C5
:10079000CDB7DEB78C01FC018485958597FF0BC032
:1007A000CE0101960E946101019771F4898190E068
:1007B000F80195878487F801848595850F90DF91EE
:1007C000CF911F910F9108958FEF9FEFF1CFFC0113
:1007D0008485958597FD0BC09FB7F89482E0809340
:1007E000E9008091F2009FBF90E0019608959FB7C5
:1007F000F89482E08093E9008091F2009FBF90E03E
:10080000089585ED8093BC008091BC0084FDFCCFF1
:100810001092210208952091D401260F3327331F0F
:1008200021323105ECF420912102FC0190E080E0BE
:10083000243069F082E00895A091D4012191AC01A7
:100840004C545E4FA40FB52FB11D2C930196861703
:1008500098F38091D401680F6093D40180E00895EB
:1008600081E008950895E091250280912402E8171F
:1008700030F4F0E0EC56FE4F808190E008958FEF69
:100880009FEF089590912502809124022FEF3FEF72
:10089000981748F4E92FF0E0EC56FE4F208130E045
:1008A0009F5F90932502C901089580912402909141
:1008B0002502891B990B0895CF92DF92EF92FF9248
:1008C0000F931F93CF93DF937C01CB018A0120917B
:1008D0009301222389F0EB016B01C40ED51ECC15C8
:1008E000DD0569F06991D701ED91FC910190F081EE
:1008F000E02DC7010995F3CF642F0E940B04C801B6
:10090000DF91CF911F910F91FF90EF90DF90CF90EB
:100910000895CF93DF931F92CDB7DEB769832091FF
:1009200093012223F9F020912202203258F021E095
:1009300030E0FC013383228390E080E00F90DF9170
:10094000CF91089580912302E82FF0E0ED58FE4FFB
:10095000998190838F5F809323028093220281E0AC
:1009600090E0ECCF61E0CE0101960E940B04F7CF3E
:10097000CF93FC01C48121E020939301C0937201C5
:1009800010922302109222028385682B85E992E05F
:100990000E94890490912202913208F03FC0809118
:1009A00021028111FCCF82E08093210281E08093BB
:1009B00020028FEF8093F701109219029093180292
:1009C000A3E7B1E0E8EFF1E080E098132FC01092C8
:1009D0001A0280911A02CC0FC82BC0931A02809180
:1009E0001F02813039F510921F0280911A02809304
:1009F000BB008091BC0083FDF8CF85EC8093BC00E8
:100A0000809121028230E1F38091F7018F3F31F034
:100A10008091F701803211F08091F701109223024A
:100A20001092220210929301CF9108952D9121935B
:100A30008F5FCBCF85EEE2CF089590E080E0089500
:100A40008F929F92AF92BF920F931F93CF93DF939A
:100A5000CDB7DEB7A1970FB6F894DEBF0FBECDBFFE
:100A600019A2423008F44AE08E010F5D1F4F842E18
:100A7000912CB12CA12CA50194010E94830EE62F8C
:100A8000B901CA01EA3044F5E05DD801EE938D0169
:100A9000232B242B252B79F790E080E0109769F029
:100AA000FD0101900020E9F73197AF014A1B5B0B74
:100AB000BD0181EA92E00E94CC02A1960FB6F894A3
:100AC000DEBF0FBECDBFDF91CF911F910F91BF90C1
:100AD000AF909F908F900895E95CD7CF0F931F93AD
:100AE000CF938C01C62F0E94B8046C2F6460C8019C
:100AF0000E94B8046C2F6B7FC8010E94B80483EC7D
:100B000090E00197F1F7CF911F910F9108950F9306
:100B10001F93CF93DF938C01D62FC42F607F642B5C
:100B20000E946E0580E1D89FB00111246C2BC80192
:100B3000DF91CF911F910F910C946E05CF93DF93AE
:100B4000CDB7DEB728970FB6F894DEBF0FBECDBF86
:100B500098E0E2E1F1E0DE01119601900D929A95A4
:100B6000E1F79091A902981708F48FEF90E0880FB1
:100B7000991F21E030E02C0F3D1F820F931FFC01D5
:100B80006081606840E081EA92E028960FB6F894B0
:100B9000DEBF0FBECDBFDF91CF910C94870541E042
:100BA0000E94870581E090E008951F920F920FB692
:100BB0000F9211242F933F938F939F93AF93BF93E3
:100BC00080912F0290913002A0913102B0913202B7
:100BD00030912E0223E0230F2D3758F50196A11DE9
:100BE000B11D20932E0280932F0290933002A09388
:100BF0003102B09332028091330290913402A0917D
:100C00003502B09136020196A11DB11D80933302C9
:100C100090933402A0933502B0933602BF91AF9106
:100C20009F918F913F912F910F900FBE0F901F902A
:100C3000189526E8230F0296A11DB11DD2CF1F9251
:100C40000F920FB60F9211248F939F938091E10022
:100C50009091E100937F9093E10083FF0FC0109289
:100C6000E90091E09093EB001092EC0092E39093F6
:100C7000ED001092440298E09093F00082FF22C0B1
:100C800093E09093E9009091F200992319F09AE390
:100C90009093E80090912D02992341F090912D02BC
:100CA000915090932D02911101C05D9A9091430251
:100CB000992341F0909143029150909343029111F6
:100CC00001C0289A84FF18C08091E2008E7E816066
:100CD0008093E2008091E1008F7E8093E10080911B
:100CE0002C028E7E806180932C029F918F910F90B9
:100CF0000FBE0F901F90189580FFF7CF8091E200F4
:100D00008E7E80618093E2008091E1008E7E8093F0
:100D1000E10080912C028E7E8160E5CF1F920F92C0
:100D20000FB60F921124CF92DF92EF92FF920F93A2
:100D30001F932F933F934F935F936F937F938F9363
:100D40009F93AF93BF93EF93FF93CF93DF93CDB771
:100D5000DEB76C97DEBFCDBF1092E9008091E8004E
:100D600083FF25C068E0CE0145960E94BF0282EF56
:100D70008093E8008D8987FF39C09091E80090FF4B
:100D8000FCCF982F907609F034C19E894F89588DF9
:100D90002F89F88C911131C0803861F580912B0238
:100DA0008093F1001092F1008EEF8093E8006C9632
:100DB0000FB6F894DEBF0FBECDBFDF91CF91FF918C
:100DC000EF91BF91AF919F918F917F916F915F91C3
:100DD0004F913F912F911F910F91FF90EF90DF90D6
:100DE000CF900F900FBE0F901F9018959EEF90938D
:100DF000E800C7CF1092F100D5CF913059F481119E
:100E0000D3CF4130510581F680912B028D7F8093A5
:100E10002B02CACF933049F48111C6CF413051051E
:100E200019F680912B028260F2CF953041F48091C7
:100E3000E80080FFFCCF20682093E300B5CF963018
:100E400009F0A9C00B8D1C8D22E01092E9001092D0
:100E5000290210922802F2122EC01092270210923C
:100E600026020E948E021F8299E09983FA8291E005
:100E70009E8390EA98879AEF998720912802309173
:100E80002902275F3F4F3C832B838D831092E9001B
:100E90001092290210922802109327020093260232
:100EA00049E050E0BE016F5F7F4F80E00E94680222
:100EB0000E948E0279CF10932702009326020E948F
:100EC0009C01DC0112960D911C910115110509F48C
:100ED00051C1D801ED91FC910480F581E02DBE0156
:100EE0006B5E7F4FC8010995009709F03EC1F8017C
:100EF00000851185EACFF3E0FF120EC08F898823A9
:100F000009F440C0823061F440E86BE08CE191E08C
:100F10000E943502811148CF81E28093EB0047CFD8
:100F2000813029F440E86BE080E191E0F1CF83303B
:100F300099F70E949C01DC011296ED90FC908E01C5
:100F40000F5F1F4F6801E114F10479F0D701ED91B3
:100F5000FC910680F781E02DB801C7010995080FC3
:100F6000111DF701E084F184EECFD8011C92F60147
:100F700001900020E9F73197BF016C197D0940E02D
:100F8000C601C6CF6AEF70E0FB01449150E080E8F3
:100F90000E94680209CF973009F4BECF983021F43F
:100FA00081E08093F10000CF993009F0FDCE83708D
:100FB00009F0B2CFEBE1F1E081E031E096E321917D
:100FC000222371F08093E9003093EB00DF01119749
:100FD0002C912093EC009093ED008F5F873079F790
:100FE0008EE78093EA001092EA008F898093440292
:100FF000DBCE8B8D9C8D1092E9001092290210920D
:1010000028029093270280932602898D811192C035
:101010008E899D89913A49F4813209F07DCF47E06C
:1010200050E064E071E080E0B3CF913209F074CF1A
:10103000833269F48F89988DB0E0A0E0809300013D
:1010400090930101A0930201B0930301ADCE8032D1
:1010500069F48091E80082FFFCCF67E084E091E0D2
:101060000E94BF028BEF8093E8009ECE823209F08F
:101070009BCE8F8980930B01EEEFFFE785919491D2
:101080008B3F9C4D51F1E0E0F8E08091040190919C
:101090000501A0910601B0910701803B9440A10594
:1010A000B105F1F480910B0180FD1AC0EE3F8AE09A
:1010B000F80789F587E797E791838083809160003F
:1010C00080932A0288E19BE00FB6F894A89580935C
:1010D00060000FBE9093600067CEEEEFFAE0D5CFD0
:1010E000808191818737974709F05ECEA8958091DE
:1010F000600088618093600080912A028093600084
:10110000EE3F2AE0F20789F08091FE0A9091FF0AF3
:101110009183808349CE808191818737980751F2EE
:101120009093FF0A8093FE0AC5CF1092FF0A109297
:10113000FE0A3ACE0E949C01DC0112960D911C9190
:101140000115110509F4E8CED801ED91FC9101904B
:10115000F081E02DBE016B5E7F4FC80109958111C2
:1011600023CEF80100851185EBCF181619060CF473
:101170001BCED2CEF1E0FF12BECE6EEF70E004CFF8
:101180001F920F920FB60F9211242F933F934F93FC
:101190005F936F937F938F939F93AF93BF93EF93DF
:1011A000FF938091B900887F803609F44AC0F0F53A
:1011B000883209F4A7C018F5803109F49BC0B8F44F
:1011C000882309F4F9C0883009F494C0FF91EF91A5
:1011D000BF91AF919F918F917F916F915F914F914F
:1011E0003F912F910F900FBE0F901F90189588314F
:1011F00009F488C0803251F78093F70114C080341D
:1012000009F49DC040F48033B9F38833F9F6809334
:10121000F70185ECB0C0803509F485C0883509F444
:1012200096C0883499F60E940104D0CF883909F419
:101230008CC038F5883729F050F4883611F08037A3
:1012400029F683E0809321021092F60157C0883876
:1012500009F47BC0803919F0803809F0B7CF80914C
:10126000F601803208F071C0E091F60181E08E0F46
:101270008093F6018091BB00F0E0EA52FE4F80833C
:101280003DC0803B39F0E0F4803A09F479C0883AF7
:1012900009F09CCF84E0809321021092D501109236
:1012A000D401E0911D02F0911E0209958091D401B4
:1012B00081110FC081E08093D4011092B40109C064
:1012C000803C09F4A6CF883C09F4A3CF883B09F001
:1012D0007DCFE091D50181E08E0F8093D501F0E0C4
:1012E000EC54FE4F80818093BB009091D50180919A
:1012F000D40129C080911A028093BB0085EC8093B1
:10130000BC0064CF9091190280911802981758F58B
:10131000E091190281E08E0F80931902F0E0E8500D
:10132000FE4F8081E9CFE091190281E08E0F80931A
:1013300019028091BB00F0E0E850FE4F808390914D
:101340001902809118029817C8F285E8D8CFE09169
:10135000190281E08E0F809319028091BB00F0E0AA
:10136000E850FE4F80838091200281115CCF81E0A4
:1013700080931F0284EA8093BC001092210226CF42
:1013800085EC8093BC00109221028091F60180329E
:1013900030F4E091F601F0E0EA52FE4F10826091E5
:1013A000F60170E0E0911B02F0911C0286ED91E0E5
:1013B00009951092F6010ACF1092F70134CFE5E4B7
:1013C000F2E01382128288EE93E0A0E0B0E0848322
:1013D0009583A683B78325E231E0318320832FEF05
:1013E0003FEF35872487E5E9F2E013821282848398
:1013F0009583A683B78387E391E091838083E1EAB5
:10140000F2E01382128289E491E09183808387E283
:10141000848380E1818782E08287138608957894AF
:1014200084B5826084BD84B5816084BD85B58260E9
:1014300085BD85B5816085BD80916E00816080939A
:101440006E00109281008091810082608093810003
:101450008091810081608093810080918000816013
:1014600080938000809191008260809391008091B0
:1014700091008160809391008091900081608093C1
:1014800090008091C10084608093C1008091C10070
:1014900082608093C1008091C10081608093C1000F
:1014A0008091C30081608093C3008091C0008260FE
:1014B0008093C0008091C20081608093C2008091BF
:1014C0007A00846080937A0080917A0082608093B1
:1014D0007A0080917A00816080937A0080917A000E
:1014E000806880937A001092440210922B0210922E
:1014F0002C028091D70081608093D70080EA80938E
:10150000D80089B5806189BD89B5826089BD09B47B
:1015100000FEFDCF61E070E080E090E00E94D50128
:101520008091D8008F7C80618093D8008091E0000A
:10153000807F8093E0008091E1008E7E8093E100C7
:101540008DE08093E200559A209A6DE070E090E083
:1015500080E00E94D00FEC01F12CE12C009741F0CB
:10156000188261E571E00E9496109CE0E92EF12C52
:101570008FEF9FEF909352028093510210922502B9
:101580001092240210922302109222021092210241
:1015900081E08093200210921F0282E00E94F500F9
:1015A00083E00E94F5008091B9008E7F8093B9009E
:1015B0008091B9008D7F8093B90088E48093B80052
:1015C00085E48093BC0089EF92E090931E028093A3
:1015D0001D028AEF92E090931C0280931B021092EE
:1015E000A6028091AB02823018F098E09093A60298
:1015F0008093A90262E370E080E090E00E94D50150
:101600006091AC0281EA92E00E94B80468EE73E057
:1016100080E090E00E94D50160E381EA92E00E94C0
:101620006E050BE416E4C8010197F1F760E381EA67
:1016300092E00E946E05C8010197F1F760E381EA2C
:1016400092E00E946E0583E592E00197F1F760E277
:1016500081EA92E00E946E056091A602606240E01D
:1016600081EA92E00E94870584E08093A70240E02F
:101670006CE081EA92E00E94870540E061E081EA47
:1016800092E00E9487050BE31FE1C8010197F1F783
:1016900082E08093A80240E066E081EA92E00E9446
:1016A000870540E062E081EA92E00E948705C80178
:1016B0000197F1F71092AC0260E081EA92E00E949B
:1016C000B804A701BE0181EA92E00E94CC0268EB57
:1016D0007BE080E090E00E94D501CE010E94470FA0
:1016E000CCEAD0E080E0A82E80E0B82EFE01849104
:1016F00020917B00982F990F990F90722F7D922B3C
:1017000090937B008770806480937C0080917A0046
:10171000806480937A0080917A0086FDFCCF80916E
:10172000780060917900762F682F072E000C880BC7
:10173000990B0E94150C20E030E04AE753E40E9428
:10174000690D20E030E048EC52E40E94740C20E087
:1017500030E045EB53E40E94D60D9B01AC0160E004
:1017600070E088EC92E40E94690D6B017C0120E03E
:1017700030E0A9010E947E0E20E030E040E05FE30F
:1017800087FD4CC0C701B6010E946A0D0E94480E39
:101790006B0180E00E949E0540E150E06EE571E043
:1017A00081EA92E00E94CC0281E00E949E050D2C0D
:1017B000000CEE08FF084AE0C701B601F7FE0EC0B4
:1017C00041E06DE281EA92E00E9487056627772773
:1017D000CB016C197D098E099F094AE00E94200502
:1017E00041E050E06FE671E081EA92E00E94CC02B5
:1017F00068EE73E080E090E00E94D50140E061E097
:1018000081EA92E00E948705C8010197F1F7A114CF
:10181000B10409F46BCF0E94000068CFC701B60184
:101820000E94690DB3CFE89409C097FB3EF49095F0
:101830008095709561957F4F8F4F9F4F9923A9F0A9
:10184000F92F96E9BB279395F69587957795679538
:10185000B795F111F8CFFAF4BB0F11F460FF1BC07C
:101860006F5F7F4F8F4F9F4F16C0882311F096E90F
:1018700011C0772321F09EE8872F762F05C06623BD
:1018800071F096E8862F70E060E02AF09A95660F76
:10189000771F881FDAF7880F9695879597F908952F
:1018A000990F0008550FAA0BE0E8FEEF1616170671
:1018B000E807F907C0F012161306E407F50798F0D9
:1018C000621B730B840B950B39F40A2661F0232BF2
:1018D000242B252B21F408950A2609F4A140A6956E
:1018E0008FEF811D811D08950E94870C0C94F80CC8
:1018F0000E94EA0C38F00E94F10C20F0952311F0C0
:101900000C94E10C0C94E70C11240C942C0D0E9407
:10191000090D70F3959FC1F3950F50E0551F629F1D
:10192000F001729FBB27F00DB11D639FAA27F00D38
:10193000B11DAA1F649F6627B00DA11D661F829F5F
:101940002227B00DA11D621F739FB00DA11D621F44
:10195000839FA00D611D221F749F3327A00D611D61
:10196000231F849F600D211D822F762F6A2F112443
:101970009F5750409AF0F1F088234AF0EE0FFF1F76
:10198000BB1F661F771F881F91505040A9F79E3FCD
:10199000510580F00C94E10C0C942C0D5F3FE4F3A6
:1019A000983ED4F3869577956795B795F795E79523
:1019B0009F5FC1F7FE2B880F911D9695879597F92C
:1019C000089597F99F6780E870E060E008959FEFC1
:1019D00080EC089500240A941616170618060906C6
:1019E000089500240A941216130614060506089595
:1019F000092E0394000C11F4882352F0BB0F40F41D
:101A0000BF2B11F460FF04C06F5F7F4F8F4F9F4F5C
:101A1000089557FD9058440F551F59F05F3F71F0DE
:101A20004795880F97FB991F61F09F3F79F0879545
:101A30000895121613061406551FF2CF4695F1DFCE
:101A400008C0161617061806991FF1CF869571055E
:101A5000610508940895E894BB2766277727CB0192
:101A600097F908952F923F924F925F926F927F92D3
:101A70008F929F92AF92BF92CF92DF92EF92FF929E
:101A80000F931F93CF93DF93CDB7DEB7CA1BDB0B4A
:101A90000FB6F894DEBF0FBECDBF09942A883988EF
:101AA00048885F846E847D848C849B84AA84B984F6
:101AB000C884DF80EE80FD800C811B81AA81B98102
:101AC000CE0FD11D0FB6F894DEBF0FBECDBFED0116
:101AD00008955058BB27AA270E94810D0C94F80C3A
:101AE0000E94EA0C38F00E94F10C20F039F49F3F7C
:101AF00019F426F40C94E70C0EF4E095E7FB0C9433
:101B0000E10CE92F0E94090D58F3BA176207730719
:101B10008407950720F079F4A6F50C942B0D0EF4AC
:101B2000E0950B2EBA2FA02D0B01B90190010C01ED
:101B3000CA01A0011124FF27591B99F0593F50F405
:101B4000503E68F11A16F040A22F232F342F44275D
:101B5000585FF3CF469537952795A795F040539555
:101B6000C9F77EF41F16BA0B620B730B840BBAF025
:101B70009150A1F0FF0FBB1F661F771F881FC2F790
:101B80000EC0BA0F621F731F841F48F487957795A4
:101B90006795B795F7959E3F08F0B0CF9395880F5E
:101BA00008F09927EE0F9795879508950E94EA0D02
:101BB0000C94F80C0E94F10C58F00E94EA0C40F0D2
:101BC00029F45F3F29F00C94E10C51110C942C0D79
:101BD0000C94E70C0E94090D68F39923B1F3552387
:101BE00091F3951B550BBB27AA2762177307840730
:101BF00038F09F5F5F4F220F331F441FAA1FA9F3C6
:101C000035D00E2E3AF0E0E832D091505040E695B3
:101C1000001CCAF72BD0FE2F29D0660F771F881F14
:101C2000BB1F261737074807AB07B0E809F0BB0B07
:101C3000802DBF01FF2793585F4F3AF09E3F51051B
:101C400078F00C94E10C0C942C0D5F3FE4F3983E7B
:101C5000D4F3869577956795B795F7959F5FC9F704
:101C6000880F911D9695879597F90895E1E0660F85
:101C7000771F881FBB1F621773078407BA0720F0FE
:101C8000621B730B840BBA0BEE1F88F7E095089567
:101C90000E944F0E6894B1110C942C0D08950E946F
:101CA000110D88F09F5798F0B92F9927B751B0F0D0
:101CB000E1F0660F771F881F991F1AF0BA95C9F7D0
:101CC00014C0B13091F00E942B0DB1E008950C9436
:101CD0002B0D672F782F8827B85F39F0B93FCCF3E9
:101CE000869577956795B395D9F73EF4909580954D
:101CF000709561957F4F8F4F9F4F08950E94500CB4
:101D000008F48FEF0895A1E21A2EAA1BBB1BFD0158
:101D10000DC0AA1FBB1FEE1FFF1FA217B307E407CA
:101D2000F50720F0A21BB30BE40BF50B661F771F22
:101D3000881F991F1A9469F7609570958095909502
:101D40009B01AC01BD01CF010895EE0FFF1F05906F
:101D5000F491E02D09940F931F93CF93DF9382307A
:101D6000910510F482E090E0E091AF02F091B002B2
:101D700030E020E0B0E0A0E0309799F42115310583
:101D800009F44AC0281B390B24303105D8F58A8163
:101D90009B816115710589F1FB0193838283FE01AB
:101DA00011C0408151810281138148175907E0F029
:101DB0004817590799F4109761F012960C931297EF
:101DC00013961C933296CF01DF91CF911F910F9103
:101DD00008950093AF021093B002F4CF211531059E
:101DE00051F04217530738F0A901DB019A01BD01F8
:101DF000DF01F801C1CFEF01F9CF9093B0028093DA
:101E0000AF02CDCFFE01E20FF31F819391932250D9
:101E1000310939832883D7CF2091AD023091AE02AA
:101E2000232B41F420910E0130910F013093AE022B
:101E30002093AD0220910C0130910D012115310547
:101E400041F42DB73EB74091100150911101241B70
:101E5000350BE091AD02F091AE02E217F307A0F46A
:101E60002E1B3F0B2817390778F0AC014E5F5F4FF0
:101E70002417350748F04E0F5F1F5093AE02409372
:101E8000AD02819391939FCFF0E0E0E09CCFCF93A0
:101E9000DF930097E9F0FC01329713821282A09140
:101EA000AF02B091B002ED0130E020E01097A1F454
:101EB00020813181820F931F2091AD023091AE02BB
:101EC0002817390709F061C0F093AE02E093AD0224
:101ED000DF91CF910895EA01CE17DF07E8F54A8137
:101EE0005B819E0141155105B1F7E901FB83EA834E
:101EF00049915991C40FD51FEC17FD0761F48081FA
:101F000091810296840F951FE901998388838281CC
:101F100093819B838A83F0E0E0E012968D919C91FF
:101F200013970097B9F52D913C911197CD01029629
:101F3000820F931F2091AD023091AE02281739070E
:101F400039F6309751F51092B0021092AF02B0936B
:101F5000AE02A093AD02BCCFD383C2834081518136
:101F6000840F951FC817D90761F44E5F5F4F8881B2
:101F70009981480F591F518340838A819B819383A4
:101F800082832115310509F0B0CFF093B002E093C0
:101F9000AF029ECFFD01DC01C0CF13821282D7CFEA
:101FA000B0E0A0E0E6EDFFE00C94340D8C0100976A
:101FB00051F4CB010E94AB0E8C01C801CDB7DEB746
:101FC000E0E10C94500DFC01E60FF71F9C0122503C
:101FD0003109E217F30708F49DC0D901CD91DC91D6
:101FE0001197C617D70798F0C530D10530F3CE0149
:101FF00004978617970708F3C61BD70B2297C19340
:10200000D1936D937C93CF010E94470FD6CF5B0194
:10201000AC1ABD0A4C018C0E9D1EA091AF02B0916E
:10202000B002512C412CF12CE12C109731F580910C
:10203000AD029091AE028815990509F05CC0461674
:10204000570608F058C080910C0190910D0100973F
:1020500041F48DB79EB74091100150911101841B3E
:10206000950BE817F90708F055C0F093AE02E0931E
:10207000AD02F90171836083A0CF8D919C9111977E
:1020800012966C90129713967C901397A815B90529
:1020900059F56C0142E0C40ED11CCA14DB0420F1D6
:1020A000AC014A195B09DA011296159780F0628239
:1020B000738251834083D9016D937C93E114F104C1
:1020C00071F0D7011396FC93EE93129776CF229678
:1020D0008C0F9D1FF90191838083F301EFCFF09363
:1020E000B002E093AF0269CF4816590608F42C01FC
:1020F0007D01D3019ACFCB010E94AB0E7C010097EA
:1021000049F0AE01B8010E948D10C8010E94470F2E
:10211000870153CF10E000E050CFFB01DC0102C08B
:1021200001900D9241505040D8F70895FB01DC0119
:0E21300001900D920020E1F70895F894FFCF82
:10213E00FFFFFFFF00E10000000000000000B10201
:10214E008000000040001400540000C18081000097
:10215E0000000000008003FB02A1039603E703A525
:10216E0003C3030000000089045C041D05320455FE
:10217E00044204330400000000CF05CC021D051CF0
:10218E000567726F6F7665722076312E3100574576
:10219E00542D2D2D2D2D2D2D2D2D2D445259002507
:0221AE0000002F
:00000001FF
